:100000000C942A000C943F000C943F000C943F0089
:100010000C943F000C943F000C943F000C943F0064
:100020000C943F000C943F000C943F000C943F0054
:100030000C943F000C943F000C943F000C943F0044
:100040000C943F000C943F000C943F000C943F0034
:100050000C943F0011241FBECFE5D8E0DEBFCDBF1A
:1000600010E0A0E6B0E0E6E8F2E002C005900D92F4
:10007000A837B107D9F70E9441000C9441010C94B4
:100080000000CF93DF938EE00E940B010E94CD0011
:100090000E94D10080E690E00E94EA0080E061E0EA
:1000A0000E94BF0086E690E00E94EA00C7E6D0E02A
:1000B000CE010E94EA008FE39CE90197F1F700C0AE
:1000C00000000E94CD00F4CFC69A00C0C6980895E3
:1000D0000F931F93082F662311F0C49A01C0C49890
:1000E000C59887B38F6087BB18B3107F802F829528
:1000F0008F70812B88BB0E9464000F70012B08BB9E
:100100000E9464001F6018BB1F910F9108958823FF
:1001100011F0C49A01C0C498C59A87B3807F87BB89
:10012000C69A00C096B3C69800C0C69A00C086B3EF
:100130009295907F8F70C698892B089580E00E94D9
:1001400087008823DCF388E090E00197F1F780E0F6
:100150000E94870008951F93182F0E949E00812FF0
:1001600060E00E9468001F9108951F93182F0E945D
:100170009E00812F61E00E9468001F910895662310
:1001800021F480580E94AB00089580540E94AB0077
:1001900008950E949E0090E0089581E00E94AB00C7
:1001A000089582E00E94AB0008951F93182F0E94CB
:1001B0009E001A3049F4803410F480E401C080E0DD
:1001C00080580E94AB0004C0812F61E00E9468004B
:1001D0001F910895CF93DF93EC018881882331F03C
:1001E00021960E94D50089918823D9F7DF91CF917C
:1001F0000895CF93DF93EC01FC018491882341F0B3
:1002000021960E94D500FE01219684918823C9F78A
:10021000DF91CF9108951F93CF93DF93182F87B36A
:100220008F6787BB80E09AEF0197F1F7C19AC09A78
:100230000E94640080E09EE40197F1F70E94640050
:10024000C0E0D1E0CE010197F1F70E946400CE0139
:100250000197F1F7C0980E9464002197F1F788E2B6
:100260000E94AB0088E00E94AB000E94CD0086E0B7
:100270000E94AB00812F0E94AB00DF91CF911F91B4
:060280000895F894FFCF81
:1002860068656C6C6F00004D79206E616D65206944
:0802960073204B68616E00004B
:00000001FF
