S00D000033324C43442E73726563DF
S11300000C942A000C9447000C9447000C9447006D
S11300100C9447000C9447000C9447000C94470040
S11300200C9447000C9447000C9447000C94470030
S11300300C9447000C9447000C9447000C94470020
S11300400C9447000C9447000C9447000C94470010
S11300500C94470011241FBECFE5D8E0DEBFCDBF0E
S113006010E0A0E6B0E0E6E1F3E002C005900D92F6
S1130070A636B107D9F720E0A6E6B0E001C01D928C
S1130080A637B207E1F70E9459000C9489010C9439
S113009000001DBC1CBC8DEE92E09BBD8ABD1FBC44
S11300A08CE08EBD08B604FEFDCF1EBC80E188BF87
S11300B008951ABA83E08BBB8EE00E940E010E9461
S11300C0E3000E94E70080E690E00E94000161E006
S11300D080E00E94D90085E690E00E940001C0E023
S11300E0D0E0C89B0CC021960E9449000E944900A0
S11300F04AE050E066E670E0CE010E94440186E6E4
S113010090E00E9400010E9449000E94E300E9CFB0
S1130110C69A00C0C6980895CF93DF93D82F66235C
S113012011F0C49A01C0C498C59887B38F6087BB87
S1130130C8B3C07F8D2F82958F708C2B88BB0E9493
S11301408800DF70DC2BD8BB0E948800CF60C8BB5E
S1130150DF91CF910895882311F0C49A01C0C49807
S1130160C59A87B3807F87BBC69A00C096B3C698EA
S113017000C0C69A00C086B3C6989295907F8F70CF
S1130180892B089580E00E94AB008823DCF388E08B
S113019090E00197F1F780E00E94AB000895CF93BF
S11301A0C82F0E94C20060E08C2F0E948C00CF9167
S11301B00895611104C080580E94CF0008958054AE
S11301C00E94CF00089581E00E94CF00089582E04C
S11301D00E94CF000895CF93C82F0E94C200CA3056
S11301E049F4803410F480E401C080E080580E9417
S11301F0CF0004C061E08C2F0E948C00CF91089541
S1130200CF93DF93EC018991882329F00E94EB00BE
S113021089918111FBCFDF91CF9108951F93CF93E3
S1130220DF93182F87B38F6787BBE0E0FAEF31972E
S1130230F1F7C19AC09A0E948800E0E0FEE4319789
S1130240F1F70E948800C0E0D1E0FE013197F1F798
S11302500E948800FE013197F1F7C0980E9488003F
S11302602197F1F788E20E94CF0088E00E94CF0036
S11302700E94E30086E00E94CF00812F0E94CF00FD
S1130280DF91CF911F910895FB019F01E8944230C3
S1130290C4F04532B4F44A3029F497FB1EF4909527
S11302A081959F4F642F77270E947501805D8A3363
S11302B00CF0895D8193CB010097A1F716F45DE200
S11302C051931082C9010C946501DC01FC01672F74
S11302D071917723E1F7329704C07C916D93708319
S11302E06291AE17BF07C8F30895AA1BBB1B51E167
S11302F007C0AA1FBB1FA617B70710F0A61BB70B92
S1130300881F991F5A95A9F780959095BC01CD0136
S10903100895F894FFCFEC
S109031668656C6C6F00C9
S9030000FC
