S00D000033324C43442E73726563DF
S11300000C942A000C943F000C943F000C943F0085
S11300100C943F000C943F000C943F000C943F0060
S11300200C943F000C943F000C943F000C943F0050
S11300300C943F000C943F000C943F000C943F0040
S11300400C943F000C943F000C943F000C943F0030
S11300500C943F0011241FBECFE5D8E0DEBFCDBF16
S113006010E0A0E6B0E0E2EAF2E002C005900D92F2
S1130070A63BB107D9F70E9441000C944F010C94A0
S113008000008EE00E9419010E94EE000E94F2001E
S113009080E690E00E940B0161E080E00E94E400B1
S11300A08FE690E00E940B010E94EE0086E690E04D
S11300B00E940B0187E893E10197F1F700C000006B
S11300C00E94EE0080E790E00E940B0187E893E134
S11300D00197F1F700C000000E94EE0082E890E072
S11300E00E940B0187E893E10197F1F700C000003B
S11300F00E94EE0085E990E00E940B0187E893E1FD
S11301000197F1F700C000000E94EE0085EA90E03C
S11301100E940B0183EF91E00197F1F700C000000A
S11301200E94EE00C1CFC69A00C0C6980895CF932E
S1130130DF93D82F662311F0C49A01C0C498C598E0
S113014087B38F6087BBC8B3C07F8D2F82958F70B4
S11301508C2B88BB0E949300DF70DC2BD8BB0E94E1
S11301609300CF60C8BBDF91CF910895882311F02D
S1130170C49A01C0C498C59A87B3807F87BBC69AC6
S113018000C096B3C69800C0C69A00C086B3C6988D
S11301909295907F8F70892B089580E00E94B6001D
S11301A08823DCF388E090E00197F1F780E00E9477
S11301B0B6000895CF93C82F0E94CD0060E08C2F25
S11301C00E949700CF910895611104C080580E9445
S11301D0DA00089580540E94DA00089581E00E94B4
S11301E0DA00089582E00E94DA000895CF93C82FC0
S11301F00E94CD00CA3049F4803410F480E401C078
S113020080E080580E94DA0004C061E08C2F0E94D4
S11302109700CF910895CF93DF93EC0189918823C0
S113022029F00E94F60089918111FBCFDF91CF91D3
S113023008951F93CF93DF93182F87B38F6787BBDE
S1130240E0E0FAEF3197F1F7C19AC09A0E94930067
S1130250E0E0FEE43197F1F70E949300C0E0D1E0C2
S1130260FE013197F1F70E949300FE013197F1F7F7
S1130270C0980E9493002197F1F788E20E94DA0067
S113028088E00E94DA000E94EE0086E00E94DA0014
S1130290812F0E94DA00DF91CF911F910895F89485
S10502A0FFCF8A
S11302A268656C6C6F0047726F7570202D20310089
S11302B250617261626172202D20313833313030E5
S11302C231005368616872696172202D20313833BC
S11302D2313030320050726F6D79202D2031383335
S11302E23130303300416E69736861202D2031381A
S10902F23331303034000A
S9030000FC
