S00D000033324C43442E73726563DF
S11300000C942A000C943F000C943F000C943F0085
S11300100C943F000C943F000C943F000C943F0060
S11300200C943F000C943F000C943F000C943F0050
S11300300C943F000C943F000C943F000C943F0040
S11300400C943F000C943F000C943F000C943F0030
S11300500C943F0011241FBECFE5D8E0DEBFCDBF16
S113006010E0A0E6B0E0EEE3F2E002C005900D92ED
S1130070A637B107D9F70E9441000C941D010C94D6
S113008000008EE00E94E7000E94BC000E94C000B5
S113009080E690E00E94D90061E080E00E94B20016
S11300A085E790E00E94D9008CE690E00E94D90098
S11300B087E893E10197F1F700C000000E94BC00BB
S11300C0F3CFC69A00C0C6980895CF93DF93D82F74
S11300D0662311F0C49A01C0C498C59887B38F6091
S11300E087BBC8B3C07F8D2F82958F708C2B88BB44
S11300F00E946100DF70DC2BD8BB0E946100CF60DE
S1130100C8BBDF91CF910895882311F0C49A01C030
S1130110C498C59A87B3807F87BBC69A00C096B33C
S1130120C69800C0C69A00C086B3C6989295907FC0
S11301308F70892B089580E00E9484008823DCF36B
S113014088E090E00197F1F780E00E948400089530
S1130150CF93C82F0E949B0060E08C2F0E94650003
S1130160CF910895611104C080580E94A800089599
S113017080540E94A800089581E00E94A800089578
S113018082E00E94A8000895CF93C82F0E949B008C
S1130190CA3049F4803410F480E401C080E080580F
S11301A00E94A80004C061E08C2F0E946500CF91DA
S11301B00895CF93DF93EC018991882329F00E945D
S11301C0C40089918111FBCFDF91CF9108951F93D2
S11301D0CF93DF93182F87B38F6787BBE0E0FAEFE5
S11301E03197F1F7C19AC09A0E946100E0E0FEE401
S11301F03197F1F70E946100C0E0D1E0FE01319730
S1130200F1F70E946100FE013197F1F7C0980E9456
S113021061002197F1F788E20E94A80088E00E941B
S1130220A8000E94BC0086E00E94A800812F0E94C2
S1110230A800DF91CF911F910895F894FFCF9D
S113023E506C6561736520566F74650047726F75F7
S109024E70202D20310098
S9030000FC
